{
  "_format": "hh-sol-artifact-1",
  "contractName": "CarPool",
  "sourceName": "contracts/CarPool.sol",
  "abi": [
    {
      "anonymous": false,
      "inputs": [
        {
          "indexed": false,
          "internalType": "uint256",
          "name": "rideId",
          "type": "uint256"
        },
        {
          "indexed": true,
          "internalType": "address",
          "name": "passenger",
          "type": "address"
        }
      ],
      "name": "RideBooked",
      "type": "event"
    },
    {
      "anonymous": false,
      "inputs": [
        {
          "indexed": false,
          "internalType": "uint256",
          "name": "rideId",
          "type": "uint256"
        },
        {
          "indexed": true,
          "internalType": "address",
          "name": "driver",
          "type": "address"
        },
        {
          "indexed": false,
          "internalType": "string",
          "name": "route",
          "type": "string"
        },
        {
          "indexed": false,
          "internalType": "uint256",
          "name": "availableSeats",
          "type": "uint256"
        },
        {
          "indexed": false,
          "internalType": "uint256",
          "name": "pricePerSeat",
          "type": "uint256"
        }
      ],
      "name": "RideCreated",
      "type": "event"
    },
    {
      "inputs": [
        {
          "internalType": "uint256",
          "name": "_rideId",
          "type": "uint256"
        }
      ],
      "name": "bookRide",
      "outputs": [],
      "stateMutability": "payable",
      "type": "function"
    },
    {
      "inputs": [
        {
          "internalType": "string",
          "name": "_route",
          "type": "string"
        },
        {
          "internalType": "uint256",
          "name": "_availableSeats",
          "type": "uint256"
        },
        {
          "internalType": "uint256",
          "name": "_pricePerSeat",
          "type": "uint256"
        }
      ],
      "name": "createRide",
      "outputs": [],
      "stateMutability": "nonpayable",
      "type": "function"
    },
    {
      "inputs": [
        {
          "internalType": "uint256",
          "name": "_rideId",
          "type": "uint256"
        }
      ],
      "name": "getRide",
      "outputs": [
        {
          "internalType": "address",
          "name": "",
          "type": "address"
        },
        {
          "internalType": "string",
          "name": "",
          "type": "string"
        },
        {
          "internalType": "uint256",
          "name": "",
          "type": "uint256"
        },
        {
          "internalType": "uint256",
          "name": "",
          "type": "uint256"
        },
        {
          "internalType": "bool",
          "name": "",
          "type": "bool"
        }
      ],
      "stateMutability": "view",
      "type": "function"
    },
    {
      "inputs": [
        {
          "internalType": "uint256",
          "name": "",
          "type": "uint256"
        }
      ],
      "name": "rides",
      "outputs": [
        {
          "internalType": "address",
          "name": "driver",
          "type": "address"
        },
        {
          "internalType": "string",
          "name": "route",
          "type": "string"
        },
        {
          "internalType": "uint256",
          "name": "availableSeats",
          "type": "uint256"
        },
        {
          "internalType": "uint256",
          "name": "pricePerSeat",
          "type": "uint256"
        },
        {
          "internalType": "bool",
          "name": "isActive",
          "type": "bool"
        }
      ],
      "stateMutability": "view",
      "type": "function"
    },
    {
      "inputs": [],
      "name": "ridesCount",
      "outputs": [
        {
          "internalType": "uint256",
          "name": "",
          "type": "uint256"
        }
      ],
      "stateMutability": "view",
      "type": "function"
    }
  ],
  "bytecode": "0x608060405234801561001057600080fd5b506111a6806100206000396000f3fe60806040526004361061004a5760003560e01c80631bcda7771461004f5780635205f1121461007a5780637c7b0ff4146100bb578063a14699d4146100fc578063c69b2cf614610125575b600080fd5b34801561005b57600080fd5b50610064610141565b6040516100719190610760565b60405180910390f35b34801561008657600080fd5b506100a1600480360381019061009c91906107bb565b610147565b6040516100b29594939291906108d4565b60405180910390f35b3480156100c757600080fd5b506100e260048036038101906100dd91906107bb565b610232565b6040516100f39594939291906108d4565b60405180910390f35b34801561010857600080fd5b50610123600480360381019061011e9190610a63565b610374565b005b61013f600480360381019061013a91906107bb565b61050a565b005b60015481565b60006020528060005260406000206000915090508060000160009054906101000a900473ffffffffffffffffffffffffffffffffffffffff169080600101805461019090610b01565b80601f01602080910402602001604051908101604052809291908181526020018280546101bc90610b01565b80156102095780601f106101de57610100808354040283529160200191610209565b820191906000526020600020905b8154815290600101906020018083116101ec57829003601f168201915b5050505050908060020154908060030154908060040160009054906101000a900460ff16905085565b60006060600080600080600087815260200190815260200160002060000160009054906101000a900473ffffffffffffffffffffffffffffffffffffffff16600080888152602001908152602001600020600101600080898152602001908152602001600020600201546000808a8152602001908152602001600020600301546000808b815260200190815260200160002060040160009054906101000a900460ff168380546102e190610b01565b80601f016020809104026020016040519081016040528092919081815260200182805461030d90610b01565b801561035a5780601f1061032f5761010080835404028352916020019161035a565b820191906000526020600020905b81548152906001019060200180831161033d57829003601f168201915b505050505093509450945094509450945091939590929450565b600082116103b7576040517f08c379a00000000000000000000000000000000000000000000000000000000081526004016103ae90610ba4565b60405180910390fd5b600081116103fa576040517f08c379a00000000000000000000000000000000000000000000000000000000081526004016103f190610c36565b60405180910390fd5b600080600060015481526020019081526020016000209050338160000160006101000a81548173ffffffffffffffffffffffffffffffffffffffff021916908373ffffffffffffffffffffffffffffffffffffffff160217905550838160010190816104669190610e02565b5082816002018190555081816003018190555060018160040160006101000a81548160ff0219169083151502179055503373ffffffffffffffffffffffffffffffffffffffff167f43948773c1baab5f9eb6286f8fde02833dbbc14ff9a2d9e57d7f62054a90b43c6001548686866040516104e49493929190610ed4565b60405180910390a2600160008154809291906104ff90610f4f565b919050555050505050565b600154811061054e576040517f08c379a000000000000000000000000000000000000000000000000000000000815260040161054590610fe3565b60405180910390fd5b60008082815260200190815260200160002060040160009054906101000a900460ff166105b0576040517f08c379a00000000000000000000000000000000000000000000000000000000081526004016105a79061104f565b60405180910390fd5b60008060008381526020019081526020016000206002015411610608576040517f08c379a00000000000000000000000000000000000000000000000000000000081526004016105ff906110bb565b60405180910390fd5b60008082815260200190815260200160002060030154341015610660576040517f08c379a000000000000000000000000000000000000000000000000000000000815260040161065790611127565b60405180910390fd5b600160008083815260200190815260200160002060050160003373ffffffffffffffffffffffffffffffffffffffff1673ffffffffffffffffffffffffffffffffffffffff16815260200190815260200160002060006101000a81548160ff02191690831515021790555060008082815260200190815260200160002060020160008154809291906106f190611147565b91905055503373ffffffffffffffffffffffffffffffffffffffff167f65394bc371dbe55ca40e19310c8a935b039bf28367787cfaeeecfe3361bf18a08260405161073c9190610760565b60405180910390a250565b6000819050919050565b61075a81610747565b82525050565b60006020820190506107756000830184610751565b92915050565b6000604051905090565b600080fd5b600080fd5b61079881610747565b81146107a357600080fd5b50565b6000813590506107b58161078f565b92915050565b6000602082840312156107d1576107d0610785565b5b60006107df848285016107a6565b91505092915050565b600073ffffffffffffffffffffffffffffffffffffffff82169050919050565b6000610813826107e8565b9050919050565b61082381610808565b82525050565b600081519050919050565b600082825260208201905092915050565b60005b83811015610863578082015181840152602081019050610848565b60008484015250505050565b6000601f19601f8301169050919050565b600061088b82610829565b6108958185610834565b93506108a5818560208601610845565b6108ae8161086f565b840191505092915050565b60008115159050919050565b6108ce816108b9565b82525050565b600060a0820190506108e9600083018861081a565b81810360208301526108fb8187610880565b905061090a6040830186610751565b6109176060830185610751565b61092460808301846108c5565b9695505050505050565b600080fd5b600080fd5b7f4e487b7100000000000000000000000000000000000000000000000000000000600052604160045260246000fd5b6109708261086f565b810181811067ffffffffffffffff8211171561098f5761098e610938565b5b80604052505050565b60006109a261077b565b90506109ae8282610967565b919050565b600067ffffffffffffffff8211156109ce576109cd610938565b5b6109d78261086f565b9050602081019050919050565b82818337600083830152505050565b6000610a06610a01846109b3565b610998565b905082815260208101848484011115610a2257610a21610933565b5b610a2d8482856109e4565b509392505050565b600082601f830112610a4a57610a4961092e565b5b8135610a5a8482602086016109f3565b91505092915050565b600080600060608486031215610a7c57610a7b610785565b5b600084013567ffffffffffffffff811115610a9a57610a9961078a565b5b610aa686828701610a35565b9350506020610ab7868287016107a6565b9250506040610ac8868287016107a6565b9150509250925092565b7f4e487b7100000000000000000000000000000000000000000000000000000000600052602260045260246000fd5b60006002820490506001821680610b1957607f821691505b602082108103610b2c57610b2b610ad2565b5b50919050565b7f4174206c65617374206f6e652073656174206d75737420626520617661696c6160008201527f626c650000000000000000000000000000000000000000000000000000000000602082015250565b6000610b8e602383610834565b9150610b9982610b32565b604082019050919050565b60006020820190508181036000830152610bbd81610b81565b9050919050565b7f5072696365207065722073656174206d7573742062652067726561746572207460008201527f68616e207a65726f000000000000000000000000000000000000000000000000602082015250565b6000610c20602883610834565b9150610c2b82610bc4565b604082019050919050565b60006020820190508181036000830152610c4f81610c13565b9050919050565b60008190508160005260206000209050919050565b60006020601f8301049050919050565b600082821b905092915050565b600060088302610cb87fffffffffffffffffffffffffffffffffffffffffffffffffffffffffffffffff82610c7b565b610cc28683610c7b565b95508019841693508086168417925050509392505050565b6000819050919050565b6000610cff610cfa610cf584610747565b610cda565b610747565b9050919050565b6000819050919050565b610d1983610ce4565b610d2d610d2582610d06565b848454610c88565b825550505050565b600090565b610d42610d35565b610d4d818484610d10565b505050565b5b81811015610d7157610d66600082610d3a565b600181019050610d53565b5050565b601f821115610db657610d8781610c56565b610d9084610c6b565b81016020851015610d9f578190505b610db3610dab85610c6b565b830182610d52565b50505b505050565b600082821c905092915050565b6000610dd960001984600802610dbb565b1980831691505092915050565b6000610df28383610dc8565b9150826002028217905092915050565b610e0b82610829565b67ffffffffffffffff811115610e2457610e23610938565b5b610e2e8254610b01565b610e39828285610d75565b600060209050601f831160018114610e6c5760008415610e5a578287015190505b610e648582610de6565b865550610ecc565b601f198416610e7a86610c56565b60005b82811015610ea257848901518255600182019150602085019450602081019050610e7d565b86831015610ebf5784890151610ebb601f891682610dc8565b8355505b6001600288020188555050505b505050505050565b6000608082019050610ee96000830187610751565b8181036020830152610efb8186610880565b9050610f0a6040830185610751565b610f176060830184610751565b95945050505050565b7f4e487b7100000000000000000000000000000000000000000000000000000000600052601160045260246000fd5b6000610f5a82610747565b91507fffffffffffffffffffffffffffffffffffffffffffffffffffffffffffffffff8203610f8c57610f8b610f20565b5b600182019050919050565b7f496e76616c696420726964652049440000000000000000000000000000000000600082015250565b6000610fcd600f83610834565b9150610fd882610f97565b602082019050919050565b60006020820190508181036000830152610ffc81610fc0565b9050919050565b7f52696465206973206e6f74206163746976650000000000000000000000000000600082015250565b6000611039601283610834565b915061104482611003565b602082019050919050565b600060208201905081810360008301526110688161102c565b9050919050565b7f4e6f20617661696c61626c652073656174730000000000000000000000000000600082015250565b60006110a5601283610834565b91506110b08261106f565b602082019050919050565b600060208201905081810360008301526110d481611098565b9050919050565b7f496e73756666696369656e742066756e64730000000000000000000000000000600082015250565b6000611111601283610834565b915061111c826110db565b602082019050919050565b6000602082019050818103600083015261114081611104565b9050919050565b600061115282610747565b91506000820361116557611164610f20565b5b60018203905091905056fea2646970667358221220bcff08df883c6316c5265e54aaabfb3e69ce4ade4c8d1648694293a954c9015664736f6c63430008180033",
  "linkReferences": {},
  "deployedLinkReferences": {}
}